:020000040800F2
:10000000C83800203D0300084503000847030008E6
:10001000490300084B0300084D03000800000000DE
:100020000000000000000000000000007502000851
:100030005103000800000000ED0200082903000839
:100040005703000857030008570300085703000828
:100050005703000857030008570300085703000818
:100060005703000857030008570300084913000806
:100070006913000889130008A9130008C9130008B0
:10008000E913000809140008570300085703000883
:10009000715E000857030008570300085703000863
:1000A00057030008570300085703000857030008C8
:1000B00057030008570300085703000857030008B8
:1000C0005703000857030008570300081D180008CD
:1000D0005703000857030008570300085703000898
:1000E00057030008570300085703000800F002F800
:1000F00000F06AF80AA090E8000C82448344AAF158
:100100000107DA4501D100F05FF8AFF2090EBAE855
:100110000F0013F0010F18BFFB1A43F0010318473B
:10012000D47C0000F47C00000A444FF0000C10F86E
:10013000013B13F0070408BF10F8014B1D1108BF65
:1001400010F8015B641E05D010F8016B641E01F805
:10015000016BF9D113F0080F1EBF10F8014BAD1C55
:100160000C1B09D16D1E58BF01F801CBFAD505E073
:1001700014F8016B01F8016B6D1EF9D59142D6D3CD
:10018000704700000023002400250026103A28BFF5
:1001900078C1FBD8520728BF30C148BF0B607047F9
:1001A000642900F05981732900F00A830020704708
:1001B0001FB59DE8030000F076FE00F01DFB1FBD9B
:1001C00010B500F091FB10BD00F000FC1146FFF7E8
:1001D000EFFF0FB400F00CF80FBC06F033F900F09D
:1001E00077F903B4FFF7ECFF03BC00F0E9FB000074
:1001F00004B006F06FF90448002106F011FA06F089
:100200007BF900F065F90000387A000880F309886E
:100210007047EFF309807047684680F30988044807
:100220000078C00714BF0220032080F314887047B1
:10023000F8790008DFF818C0EFF305831B0618BF34
:100240006047EFF31483DB0708BF604700DF7047A8
:1002500007670008DFF818C0EFF305831B0618BF17
:100260006047EFF31483DB0708BF604700DF704788
:1002700085690008EFF30980816911F8021CF1B962
:1002800090E80F10E047EFF3098C8CE80700144B5F
:1002900093E8060091420FD039B12CE9F00FC1F874
:1002A00028C00CB406F07CFF0CBC1A60D2F828C041
:1002B000BCE8F00F8CF309886FF0020E704710B5A0
:1002C000084A1268914209D8074C54F8214090E836
:1002D0000F10A047EFF3098C8CE80F0010BD000051
:1002E000E0000020401300084013000806F0C0FDA5
:1002F0000C4B93E80600914210D0EFF3098C2CE9E7
:10030000F00FC1F828C00CB406F04AFF0CBC1A600C
:10031000D2F828C0BCE8F00F8CF309886FF0020E09
:1003200070470000E000002007F002F8E0E700005E
:1003300006F0E8F906F0FCFFDAE70000094880471C
:1003400009480047FEE7FEE7FEE7FEE7FEE7FEE7B7
:10035000FEE7FEE7FEE7FEE704480549054A064BCF
:1003600070470000A5240008ED000008C8320020F6
:10037000C8380020C8340020C83400200048704726
:100380006C3100200FB4044910B503AA029800F0A4
:1003900009FE10BC5DF814FB203200202DE9F0416D
:1003A0000E460446002020622046E168884730B3AC
:1003B000252805D0D4E901219047206A401CF2E7A6
:1003C000E168204600278847050018D0A5F14100C4
:1003D000192802D820354FF40067324629462046B6
:1003E0002760FFF7DDFE40B1012804D0F61D26F09E
:1003F00007060836D8E7361DD6E72846DAE7206A2A
:10040000BDE8F08170B50C460546012A05D0287874
:10041000800600D5EA69002302E0012305E05B1CA9
:10042000934202D2E05C0028F9D1A869E618C01A0C
:10043000A861286A184428622846AFF3008004E0C7
:10044000D5E9012114F8010B9047B442F8D32846AE
:10045000AFF3008070BD00002DE9F0410646002496
:1004600010687529314616A510D0AFF3008000281A
:1004700002DA404213A507E031688A0701D512A5C8
:1004800002E0490704D511A5012401E0AFF3008083
:1004900000210A2206F1240709E0B0FBF2FCB0FBC0
:1004A000F2F302FB1C00303078541846491C002837
:1004B000F3D123462A463046BDE8F04100F015B995
:1004C000000000002D0000002B00000020000000B4
:1004D00010B50446AFF300802046BDE81040FFF79A
:1004E00080BE032A40F2308010F0030C00F015802B
:1004F00011F8013BBCF1020F624498BF11F801CB27
:1005000000F8013B38BF11F8013BA2F1040298BF8B
:1005100000F801CB38BF00F8013B11F0030300F0F5
:100520002580083AC0F0088051F8043B083A51F899
:1005300004CBA0E80810F5E7121D5CBF51F8043B9E
:1005400040F8043BAFF30080D20724BF11F8013B11
:1005500011F801CB48BF11F8012B24BF00F8013B73
:1005600000F801CB48BF00F8012B704710B5203AC6
:10057000C0F00B80B1E81850203AA0E81850B1E85C
:100580001850A0E81850BFF4F5AF5FEA027C24BF12
:10059000B1E81850A0E8185044BF18C918C0BDE809
:1005A00010405FEA827C24BF51F8043B40F8043BD2
:1005B00008BF7047D20728BF31F8023B48BF11F887
:1005C000012B28BF20F8023B48BF00F8012B7047E1
:1005D0004FF000020429C0F0128010F0030C00F06C
:1005E0001B80CCF1040CBCF1020F18BF00F8012BEA
:1005F000A8BF20F8022BA1EB0C0100F00DB85FEAB8
:10060000C17C24BF00F8012B00F8012B48BF00F883
:10061000012B70474FF0000200B5134694469646F2
:10062000203922BFA0E80C50A0E80C50B1F1200105
:10063000BFF4F7AF090728BFA0E80C5048BF0CC0B3
:100640005DF804EB890028BF40F8042B08BF704711
:1006500048BF20F8022B11F0804F18BF00F8012B83
:10066000704700004FF0013C50F8042B51F8043B58
:100670009A4221D1A2EB0C03934313EACC1317D176
:1006800050F8042B51F8043B9A4215D1A2EB0C030D
:10069000934313EACC130BD150F8042B51F8043BCD
:1006A0009A4209D1A2EB0C03934313EACC13DBD09B
:1006B0004FF00000704700BFD01A01BAB1FA81F1C3
:1006C00001F0180122FA01F0CB40C1F12001DBB2A8
:1006D000C0B2C01A2CFA01F3D11A914311EAC31126
:1006E000E6D170477047704770472DE9F0470D46D7
:1006F00099469246044600F124080168880604D50C
:10070000E06921F01001216000E00120A84201DD34
:10071000471B00E00027A1697A1902EB0900081ABB
:10072000A0612078C00602D42046AFF300800026E6
:1007300008E0D4E901211AF806009047206A401C1D
:10074000761C20624E45F4DB2078C0060AD5204690
:10075000AFF3008006E0D4E9012130209047206A01
:10076000401C2062381EA7F10107F4DC07E0D4E941
:10077000012118F805009047206A401C2062281EBD
:10078000A5F10105F3DC2046AFF3008020780006D8
:1007900002D50220BDE8F0870120FBE710B54369D0
:1007A00013B1AFF3008001E0FFF72CFE012010BD74
:1007B000127800F124010A7000224A700122EDE74C
:1007C00011684FF0FF32E9E701694A1C02610878BD
:1007D000704700B58FB0CDE9013100210591054981
:1007E0007944CDE9031011466846FFF7D7FD0FB0F5
:1007F00000BD0000E5FFFFFF10B565485421FFF77D
:1008000009FF64485421FFF705FF63485421FFF7AF
:1008100001FF62485E49624A624B01605D481060B8
:100820005D4A1A60431C0B65511C0165012010656F
:1008300057484C3005F058FC56484C3005F054FCF5
:1008400055484C3005F050FC574805F04DFC5848D1
:100850004F4A56A1784400F0B6FA20B9544878447B
:100860000A3800F0FBFA54484A4A52A1784400F092
:10087000AAFA20B9504878440A3800F0EFFA4F48F5
:10088000454A4CA1784400F09EFA20B94B48784480
:100890000A3800F0E3FA40233D48DC0000212246FC
:1008A00000F005FA20B142487844543800F0D6FAF6
:1008B000384822464023002100F0F9F920B13E4893
:1008C0007844543800F0CAFA3348224610230021F5
:1008D00000F0EDF9002806D038487844BDE8104013
:1008E000563800F0BBBA10BD2B482DE9F041006D21
:1008F0002D4E20F00104304605F0E6FB244D4C352A
:10090000284605F0E1FB224800F0ABF9284605F047
:1009100001FC2846AFF300801E4D4C35284605F0FB
:10092000D3FB1C4800F09DF9284605F0F3FB284650
:10093000AFF30080184D4C35284605F0C5FB16482E
:1009400000F08FF9284605F0E5FB2846AFF300805C
:1009500014E0206D20F0010504F14C00074605F07D
:10096000B3FB204600F07DF9384605F0D3FB38464E
:10097000AFF30080204600F07FF82C46002CE8D131
:10098000304605F0C7FB0848AFF30080BDE8F081B2
:10099000CC310020203200207432002028010020B9
:1009A0002C010020300100203401002072000000E2
:1009B000E472000077000000D3720000C3720000F0
:1009C00001491820ABBEFEE7260002007546FFF77E
:1009D000D5FCAE4605006946534620F00700854623
:1009E00018B020B5FFF7B8FCBDE820404FF0000676
:1009F0004FF000074FF000084FF0000B21F0070107
:100A0000AC46ACE8C009ACE8C009ACE8C009ACE849
:100A1000C0098D46704770B516460D46041F002864
:100A200008BF70BD002E1CBF05F10C0005F04CFB8B
:100A30002B465868002818BFA04238BF0346F8D399
:100A40001968CA18A24218BF5C6003D122681C460C
:100A50001144196021680A19824218BF606004D1EC
:100A600042686260006808442060002E1CBF05F1E7
:100A70000C0005F04FFB70BD10B5044600F0F6F910
:100A800001682046BDE810400122C4E72DE9F04787
:100A900005460C46C86820F4201040F48000C86069
:100AA000800602D5084600F070FBE06841F2820142
:100AB0004FF0FF390140022903D0204600F00EFB21
:100AC000B5E000F42041B1F5004F0FD1C00306D5C9
:100AD0006168E06A884200D80846606006E02069E4
:100AE000E0626060606905F036FBA061A0680022EA
:100AF000EEB200280DDAE1688B050AD4C043A0608D
:100B000041F490302260E0606068411C61600670D2
:100B1000A5E0E0689046226040F40050E060206963
:100B200068BB606905F029FB012704F12405A0B129
:100B3000A08910F4407F08D0E06900F028FA206115
:100B400018B1E06840F4006016E0E7612561E068F4
:100B500020F4407040F480600EE0E06900F017FA85
:100B600000282061F1D0E06840F4006010F4407F7C
:100B7000E06002D140F48070E06020696060E0686D
:100B800025696FF0010AC1051FD56168E06A8842D6
:100B900000D80846411B04D02246284600F0A8FA97
:100BA000F0BBE068010203D5E562C4E9015854E0F6
:100BB000691CE1626160E16940F48030491EC4E96A
:100BC000021030462E70BDE8F087010202D500F415
:100BD00080320AE06068411C61600670E0680A2E9D
:100BE00040F48030E06006D00022E16A6068814213
:100BF00003D90B4602E00122F7E70346A7895B1BF6
:100C00007F0503D4E7699F4200DDE2B1814200D84D
:100C10000146E5620F1AC4E90158002B09DD00E026
:100C200005E022461946284600F062FA08B1484617
:100C3000C9E747B1A069E5626560C01BA061E068D3
:100C400040F01000E060E068000208D56168A0692B
:100C5000E562491B08446560A0615046B3E7304631
:100C6000B1E72DE9F04704464FF000094FF0FF3798
:100C7000C568D4E90486A80707D0204600F062FAC8
:100C8000304605F055FA002802DA3846BDE8F0870C
:100C9000280502D54046FFF7EFFE4C212046FFF71E
:100CA000B9FC206D20F0010020654846EEE72DE9F3
:100CB000F04704461E4690460D46C7684C308146B4
:100CC00005F002FAB80714D0780212D44046B8F5FD
:100CD000807F09D0B0F5007F06D0B8F5806F08D1CD
:100CE000012604F1240506E0701E6FF07F41884262
:100CF00001D3012409E02561E6616560E06820F424
:100D0000706040EA0800E0600024484605F002FAFE
:100D10002046BDE8F08700002DE9F04716468846DA
:100D2000814602F14C07384605F0CEF93046FFF710
:100D300098FF18F8010B61280AD0722802D0772892
:100D40003FD102E00125002405E00225042402E051
:100D5000082448F2020518F8010B2B2806D0622857
:100D600009D018F8010C74280AD00BE045F00305EF
:100D700044F00204EFE745F0040544F00104EAE71B
:100D800044F010044846214605F00AFA411C18D0E8
:100D90000021316171604FF40071F560F1617061A3
:100DA000200704D530460222002100F01BF9306DE7
:100DB00040F001003065384605F0ACF93046BDE83A
:100DC000F0870026F7E72DE9F04115460E46074665
:100DD000204C204605F078F92A4631463846FFF780
:100DE0009BFF0546204605F095F92846BDE8F081B1
:100DF0002DE9F0410E468046164D284605F064F96F
:100E0000154C206DC10704D0410804D020F0010426
:100E1000F7E7224612E0542000F0B9F8070017D097
:100E2000206D47F001010843542120653846FFF743
:100E3000F1FB07F14C0005F057F93A4631464046C0
:100E4000FFF76AFF0446284605F064F92046CDE71F
:100E50000024F8E734010020CC31002010B500F068
:100E6000BBF9BDE8104000F0B1B9704710B5FFF70D
:100E700085FA083010BD704770477047704738B525
:100E800004460A4600206946AFF30080002808BFE8
:100E900038BD02460099204600F0C1F9012038BD56
:100EA000012000F015BAF8B5AFF300800546002028
:100EB0000C46102000BF0646A819A0420DD93246A4
:100EC00069460020AFF30080070008BF00F000FA79
:100ED0000098A04218BF0546C419FFF7C7FF056078
:100EE0000746F01D20F007004619284600F08EF94D
:100EF000B44208BFF8BDA21B31463868BDE8F840CF
:100F000000F08DB90B3020F0070070472DE9F0415B
:100F100017460E460446FFF7F5FFA042054633D9B3
:100F2000002F1CBF06F10C0005F0CEF830467468A7
:100F3000F4B12168A94217D305F1080291423CBFE0
:100F40006168416007D3626861194A602268521B78
:100F50000A6041602560002F1CBF06F10C0005F0FF
:100F6000D9F8201DBDE8F08120466468002CE0D14E
:100F700029463046FFF783FF0028D7D1002F1CBF3A
:100F800006F10C0005F0C6F80020BDE8F08110B5B0
:100F90000446FFF76BFF01682046BDE810400122C0
:100FA000B4E700002DE9F04114460D46074601F173
:100FB0004C06304605F088F8094B7B44224629460A
:100FC0003846FFF706FC0446287B000601D54FF0A3
:100FD000FF34304605F09EF82046BDE8F081000061
:100FE0002F5300002DE9F041044616460D4647698F
:100FF000007B80072ED0384605F0BFF850BB3EB3CB
:10100000012E02D0022E25D104E0204600F026F960
:1010100005441DE0384605F09EF8E168002841F0DF
:101020001001E16005DA204600F058F80120BDE823
:10103000F081C9030BD56268E16A914200D811467C
:10104000A26911442269891A814200DD08460544DB
:10105000002D01DA0220EAE7E16A6068E268814275
:1010600006D29103E06203D522F4003141F0100270
:10107000A6690027AE4213DCE16A814201D90B4622
:1010800000E0034603EB060C2369ACEB030CAC4514
:1010900006DD814201D98C4600E084469C4505D19D
:1010A000A760276042F02000A5620DE0AD1BE66955
:1010B000AE1B8142A66000D90846C01A281A2060DB
:1010C0005819606022F0200003490840E0600020C9
:1010D00084F84870ABE70000BFCFD7FFC16821F4A8
:1010E000001141F08001C160002181600160704702
:1010F0002DE9F047814614460E464FF0FF3832483E
:10110000D5685769054209D03846A16905F07CF8D1
:10111000002811DB2C48C0430540E5602B463246D1
:101120004946384605F086F8A16920F00042B21A17
:1011300011440028A16103D02046FFF7CFFF4046AD
:10114000BDE8F08770B504460569C06A61688842E9
:1011500000D80846E16821F42011E160C90312D5E6
:10116000A84208D02246411B2846FFF7C1FF10B114
:101170004FF0FF3070BD0020E562C4E90150E06827
:1011800020F48030E060002070BD10B50446C068D7
:1011900020F02000E060A16AA06988420DD02046BE
:1011A000FFF7D0FFE06820F4405040F01000E0600E
:1011B000A06AA0612069E062606044F24001E068DA
:1011C0008843E06010BD000010000200002801D03C
:1011D000FFF7F6BB7047000010B5014602A000F013
:1011E0005EF8012010BD0000534947525452454457
:1011F0003A2052656469726563743A2063616E27B0
:1012000074206F70656E3A200000000000210160BC
:10121000C0E901100C3004F067BF1020704730B4F3
:1012200004468C464368002B18BF634538BF1846F8
:10123000F8D303681844604507D0C81C20F00700A5
:1012400000F1040CACEB0100121A2146CCF800208E
:1012500030BC00220CF10400FFF7DDBB10B50146E5
:10126000C268900703D0900607D5886A0AE000F0AC
:101270003DF801210160881E10BD8B694868184443
:101280000B69C01A91F848301BB191F84910401A07
:1012900010BD1103FCD50028FADD401E10BD70B54D
:1012A00005460C460A2000E06D1C00F018F835B128
:1012B00028780028F8D102E0641C00F010F814B17E
:1012C00020780028F8D1BDE870400A2000F007B867
:1012D00010B500F00DF8BDE81040FFF777BF08B576
:1012E00069468DF800000320ABBE08BD04F0B2BE15
:1012F00010B5012805D0002103A0FFF7D0FF012081
:1013000010BD09A1F8E7000053494752544D454D1F
:101310003A204F7574206F662068656170206D6596
:101320006D6F7279000000003A2048656170206D91
:10133000656D6F727920636F727275707465640089
:10134000000000007047000010B50548006800F07C
:101350000F04034844602046FFF7F4FF10BD00006F
:10136000000002407047000010B505480068C0F357
:1013700003142001024948602046FFF7F3FF10BD27
:10138000000002407047000010B505480068C0F337
:1013900003242002024948602046FFF7F3FF10BDF6
:1013A000000002407047000010B505480068C0F317
:1013B00003342003024948602046FFF7F3FF10BDC5
:1013C000000002407047000010B505480068C0F3F7
:1013D00003442004024948602046FFF7F3FF10BD94
:1013E000000002407047000010B505480068C0F3D7
:1013F00003542005024948602046FFF7F3FF10BD63
:10140000000002407047000010B505480068C0F3B6
:1014100003642006024948602046FFF7F3FF10BD31
:101420000000024018B5002844D0C0F34211C0F3B8
:101430000322214B9B6903F001032BB91E4B9B69CF
:1014400043F001031C4CA36100F48053A3B11B4B78
:10145000DB69009300F01F0301FA03F3009C9C4337
:10146000009400F01F0302FA03F3009C234300934F
:10147000124C009BE3611DE0104B5B68009300F091
:101480001F0301FA03F3009C9C43009400F01F0328
:1014900002FA03F3009C2343009307210022009BE0
:1014A00023EA01630093009B43EA02630093034C29
:1014B000009B636018BD0000001002400000014066
:1014C00001461D48814204D11C488069C0F3800058
:1014D00070471B48814204D118488069C0F3C0009E
:1014E000F6E71848814204D114488069C0F300101F
:1014F000EEE71548814204D110488069C0F34010DE
:10150000E6E71248814204D10C488069C0F380109C
:10151000DEE70F48814204D108488069C0F3C0105B
:10152000D6E70C48814204D104488069C0F300200A
:10153000CEE70020CCE70000000801400010024088
:10154000000C01400010014000140140001801404F
:10155000001C0140002001402DE9F04105460C46E9
:10156000174698460F2C02D90020BDE8F081284686
:10157000FFF7A6FF18B90121284600F029F8B8F1B5
:10158000000F10D1022F05D1E8680121A140884346
:10159000E86008E0032F06D127F00107E868012181
:1015A000A1400843E860082C01D22E4601E0083C27
:1015B0002E1D3068A2000F2191408843306048EA18
:1015C0008700A10088403168084330600120CCE7E3
:1015D000002945D0454A904206D1454A926942F0D9
:1015E0000402434B9A6180E0424A904206D1404A4D
:1015F000926942F008023E4B9A6176E03E4A904280
:1016000006D13B4A926942F01002394B9A616CE074
:101610003A4A904206D1364A926942F02002344B4F
:101620009A6162E0364A904206D1314A926942F0AC
:1016300040022F4B9A6158E0324A904206D12C4A20
:10164000926942F080022A4B9A614EE02E4A904203
:101650004BD1274A926942F48072254B9A6144E04B
:10166000224A904206D1224A926922F00402204B7B
:101670009A613AE01F4A904206D11D4A926922F0CF
:1016800008021B4B9A6130E01B4A904206D1184A6F
:10169000926922F01002164B9A6126E0174A904296
:1016A00006D1134A926922F02002114B9A611CE084
:1016B000134A904206D10E4A926922F040020C4B26
:1016C0009A6112E00F4A904206D1094A926922F0CB
:1016D0008002074B9A6108E00B4A904205D1044A08
:1016E000926922F48072024B9A61704700080140AF
:1016F00000100240000C01400010014000140140A5
:1017000000180140001C014000200140F0B500F02D
:101710000F0201F030010C4E06EB8205D5F8003CBB
:1017200003F0300585EA010423F030052C4348F628
:10173000BF75254045F0800545F40045374607EB69
:101740008206C6F8005CF0BD005000400A490968F6
:1017500001F0010171B108498039096801F0010106
:1017600041B100BF4FF0604109680029FAD04FF045
:101770006042107070470000800E00E010B500213C
:10178000064804F04DFF064908600846006810B995
:101790004FF0FF3010BD0020FCE70000D0790008BA
:1017A00004000020F0B500F00F0201F440510C4E8F
:1017B00006EB8205D5F8003C03F4405585EA0104A8
:1017C00023F440552C434BF68F75254045F080059A
:1017D00045F40045374607EB8206C6F8005CF0BDCD
:1017E0000050004070B504460D46034A2946204685
:1017F00000F06CF870BD0000707A000810B5024867
:1018000000F07CFA10BD0000707A000808B50248AC
:1018100000F078FA009008BD707A000810B5024810
:1018200000F09DFA10BD0000707A000810B5044663
:101830000249204600F097FB10BD0000707A0008B6
:1018400010B504460249204600F00CFC10BD000013
:10185000707A000870B504460D46034A29462046B2
:1018600000F0B8FC70BD0000707A000870B5044646
:101870000D46034A2946204600F0F6FC70BD0000E4
:10188000707A000870B504460D461646034B324682
:101890002946204600F032FD70BD0000707A000835
:1018A00010B5024800F062FD10BD0000707A00081B
:1018B00001480068704700004C7A000808B50248EB
:1018C0000068009008BD0000487A00082DE9F05F2C
:1018D000804689461446002500260027AB46A06AAC
:1018E000C07900F0020010B9681EBDE8F09F08F052
:1018F000FF00142833D1606A68B12068808820F026
:10190000020021688880616A0868016821F001018D
:10191000016000BF05E02068808820F08000216819
:101920008880206A68B12068808820F001002168E2
:101930008880216A0868016821F00101016000BF08
:1019400005E02068808820F04000216888801C2104
:10195000E06AFEF75FFE0020A16A0871C5E7A06A91
:10196000007910B16FF00100BFE708F0FF00042814
:101970001ED007DC78B101280FD0022812D003282E
:1019800076D112E0102816D0112842D0122848D063
:101990001328F5D14AE000BFA6E045F0010547F065
:1019A0000407A1E045F002059EE06FF006009CE709
:1019B0006FF0060099E7D4F804A0002606E0701C3A
:1019C0002AFA00F0484500D802E0761C082EF6D32B
:1019D00000BF082E04D0701C2AFA00F0484502D936
:1019E0004FF0FF3081E72068008820F04000216838
:1019F00008802068008820F0380040EAC60021688E
:101A000008802068008840F040002168088000209D
:101A10006BE7D4E900100988C1F3C201491CC84032
:101A200063E7E16AA1F8189000205EE7A06A067AF1
:101A3000012E35D1A06A806800F4C016206950B329
:101A4000B6F5002F27D1B9F1000F12D12369012279
:101A500003CB1AB101238B40036107E001F11003AE
:101A60004FF0010C0CFA03FCC0F810C000BF15E0E9
:101A700037E02369002203CB1AB101238B400361B5
:101A800007E001F110034FF0010C0CFA03FCC0F861
:101A900010C000BF02E04FF0FF3026E7002024E72F
:101AA000022E1BD1A06A806800F40016B6F5002F44
:101AB00011D1B9F1010F06D12068008840F480707F
:101AC0002168088005E02068008820F48070216883
:101AD0000880002009E74FF0FF3006E74FF0FF30A5
:101AE00003E76FF0030000E700BF08F4E060B0F523
:101AF000407F16D007DC68B1B0F5807F0BD0B0F521
:101B0000007F11D10AE0B0F5806F0ED0B0F5A06F64
:101B10000AD10BE00DE047F001070AE047F00207A9
:101B200007E047F0030704E000BF00BF6FF00700C5
:101B3000DBE600BF08F47C30B0F5004F03D0B0F511
:101B4000803F04D100E005E047F4006702E06FF059
:101B50000800CAE600BF08F48020B0F5802F01D14C
:101B600047F08007012D5CD108F4C01048B1B0F5F2
:101B7000002F26D0B0F5801F39D0B0F5C01F4CD152
:101B80000BE0206928B12269002303CA1A46FFF737
:101B9000E3FC47F4407700BF42E0206958B1216977
:101BA00008680121FFF714FD2269032303CA0222FA
:101BB000FFF7D2FC02E06FF00A0096E645F4C0158C
:101BC0002EE0206978B1216908680121FFF700FD46
:101BD0002269032303CA0022FFF7BEFC47F44077C3
:101BE00045F4002502E06FF00A007EE618E0206967
:101BF00078B1216908680121FFF7EAFC2269032313
:101C000003CA0222FFF7A8FC4BF0040B45F4801531
:101C100002E06FF00A0068E602E06FF00A0064E696
:101C200000BF022D29D108F4001018B1B0F5001F33
:101C30001FD111E0206958B1216908680121FFF71F
:101C4000C7FC2269032303CA0222FFF785FC02E0D6
:101C50006FF00A0049E60FE0206928B122690023ED
:101C600003CA1A46FFF778FC47F4007745F40015DD
:101C700002E06FF00A0038E600BFD4F804A00026A6
:101C800006E0701C2AFA00F0484500D802E0761CF5
:101C9000082EF6D300BF082E04D0701C2AFA00F0DC
:101CA000484502D94FF0FF301FE647EAC607A06A51
:101CB00085602068008820F04000216808801FFAB5
:101CC0008BF040F020002168888021680F80E8B206
:101CD00030B9A06AC07920F00400A16AC87105E09B
:101CE000A06AC07940F00400A16AC8712068008829
:101CF00040F04000216808800020F6E50146C86AEF
:101D0000C06870470CB50146886A0279019862F391
:101D100000000190886A4279019862F341000190C5
:101D2000886A8279019862F3820001900198009A92
:101D300060F30002009201984208009862F34100AB
:101D4000009001988208009862F382000090019848
:101D5000C208009862F3DF00009000980CBD2DE9E6
:101D6000F041044620680789002507F0400000285C
:101D70003CD02068008800F4006098B9206890F892
:101D80000C80E06AC068E16A0968884222D2E06A91
:101D90004068F8B1E06A4168481CE26A506081F826
:101DA000008017E020688689E06AC068E16A0968F7
:101DB00088420FD2E06A406860B1E06A4268501C15
:101DC000E36A586016703112E06A4268501CE36A98
:101DD00058601170E06AC068401CE16AC860206801
:101DE00007890121A06A417145F0020507F008004A
:101DF00020B10121A06A417145F0020507F02000E1
:101E000040B10121A06A81712068008821680880A2
:101E100045F0040507F00100002849D020688088BB
:101E200000F04000002843D0E06AC068E16A096819
:101E300088423BD22068008800F4006068B92068BE
:101E400090F80C80E06A4068C8B1E06A4168481CBC
:101E5000E26A506081F8008011E020688689E06ABB
:101E6000406860B1E06A4268501CE36A58601670CE
:101E70003112E06A4268501CE36A58601170E06AEF
:101E8000C068401CE16AC860E06AC068E16A09682D
:101E900088420DD12068808820F040002168888029
:101EA0000020A16A087145F0010501E045F0020536
:101EB00007F0020000284CD02068808800F08000E5
:101EC000002846D0E06A0069E16A096888423ED28B
:101ED0002068008800F4006088B9E06A806838B142
:101EE000E06A8168481CE26A906091F8008002E034
:101EF000E06A90F81880206880F80C8015E0E06AAD
:101F0000806870B1E06A8168481CE26A90600E786F
:101F1000E06A8168481CE26A9060087846EA002618
:101F200001E0E06A068B20688681E06A0069401C57
:101F3000E16A0861E06A0069E16A0968884208D1DB
:101F40002068808820F080002168888001E045F0CA
:101F5000020535B1A06A006818B1A06A0168284678
:101F60008847BDE8F08170B506460C460125A06A99
:101F7000C07900F0010008B1002070BDA06A0660C1
:101F80000020A16A08710021A06A4171A06A8171D4
:101F90001C21E06AFEF73EFB608BFFF743FA6169A4
:101FA00008680121FFF714FB6269032303CA0222B8
:101FB000FFF7D2FA05466DB1A06858B1A16808686C
:101FC0000121FFF705FBA268032303CA0222FFF7E2
:101FD000C3FA05466DB1E06858B1E16808680121AF
:101FE000FFF7F6FAE268002303CA0222FFF7B4FA09
:101FF00005460120A16AC8710DB10020BDE74FF070
:10200000FF30BAE71449884205D11449C96841F440
:102010008051124AD1601249884205D10F4909699D
:1020200041F480410D4A116100BF00BF00BF00BFF5
:102030000949884205D10949C96821F48051074AF4
:10204000D1600749884205D10449096921F48041DA
:10205000024A116170470000003001400010024048
:102060000038004070B505460C4625B1012D7DD0E5
:10207000022D7CD142E02068FFF7C4FF94F91C00D8
:10208000002817DB00F01F02012191404C4A430950
:1020900042F8231000BF00BF00BFBFF34F8F00BF47
:1020A00000BF00BF00BF00BF00BFBFF36F8F00BF06
:1020B00000BF00BF00BF43492068884205D14248A5
:1020C000806920F4805040498861404920688842F6
:1020D00005D13D48C06920F480403B49C8610020DB
:1020E000A16A08710021A06A4171A06A8171A06A89
:1020F000C07920F00200A16AC8715EE0A06AC079D0
:1021000000F0010010B94FF0FF3070BDA06AC07937
:1021100000F0020008B10020F7E70020A16A087172
:102120000021A06A4171A06A81710020E16A0883E0
:10213000A06AC07940F00200A16AC87121492068F4
:10214000884205D12048806940F480501E4988614A
:102150001E492068884205D11B48C06940F4804070
:102160001949C8612068FFF74DFF01E022E020E037
:1021700094F91C00002807DB00F01F0101228A40AF
:102180001349430941F8232000BF94F91C0000289B
:102190000DDB00BF00BF00F01F020121914042098A
:1021A000920002F1E022C2F8001100BF00BF00BFA0
:1021B00003E000BF6FF00300A7E700BF0020A4E723
:1021C00080E100E000300140001002400038004093
:1021D00080E200E010B5034603B111B96FF00400CE
:1021E00010BD906AC07900F0040010B94FF0FF30C4
:1021F000F6E7906A007910B16FF00100F0E7D0685F
:1022000018B1906A007A012805D0906828B1906AC8
:10221000007A022801D1012000E0002010B94FF01F
:10222000FF30DDE70120946A20710024906A447138
:10223000906A8471D06A43600020D46AA060D06A3A
:1022400001600020D46AE060D46A20611068808850
:1022500040F040001468A0801068808840F0800042
:102260001468A0800020BBE710B5034603B111B984
:102270006FF0040010BD906AC07900F0040010B93E
:102280004FF0FF30F6E7906A007910B16FF001006F
:10229000F0E7906818B1906A007A012805D0D068FC
:1022A00028B1906A007A022801D1012000E00020C4
:1022B00010B94FF0FF30DDE70120946A207100244F
:1022C000906A4471906A84710020D46A6060D06A18
:1022D0008360D06A01600020D46AE060D46A206123
:1022E0001068808840F040001468A08010688088E2
:1022F00040F080001468A0800020BBE730B50446A1
:102300000CB101B112B96FF0040030BD986AC07908
:1023100000F0040010B94FF0FF30F6E7986A00793A
:1023200010B16FF00100F0E7D86808B1986810B9F3
:102330004FF0FF30E9E701209D6A28710025986A77
:102340004571986A8571D86A4160D86A8460D86A94
:1023500002600020DD6AE860DD6A28611868808814
:1023600040F0C0001D68A8800020CEE710B50446EC
:102370006269002303CA1A46FFF7EEF8E06828B145
:10238000E268002303CA1A46FFF7E6F8A06828B1FE
:10239000A268002303CA1A46FFF7DEF8206928B1B5
:1023A0002269002303CA1A46FFF7D6F8208BFFF7ED
:1023B00039F80020A16AC87110BD10B500F002F80C
:1023C00010BD00000CB5002001900090334800685B
:1023D00040F480303149086000BF3048006800F4A4
:1023E000003000900198401C0190009818B90198A5
:1023F000B0F5A06FF1D12948006800F4003010B1A9
:102400000120009001E0002000900098012843D1B5
:102410002348006840F01000214908600846006821
:1024200020F0030008600846006840F002000860E1
:102430001A4840681949486008464068486008469C
:10244000406840F4806048600846406820F47C1092
:1024500048600846406840F4E81048600846006854
:1024600040F08070086000BF0C48006800F0007009
:102470000028F9D00948406820F003000749486067
:102480000846406840F00200486000BF03484068CA
:1024900000F00C000828F9D10CBD0000001002402B
:1024A0000020024010B51348006840F001001149B7
:1024B000086008464068104908400E4948600846D0
:1024C00000680E4908400B4908600846006820F47F
:1024D000802008600846406820F4FE0048604FF401
:1024E0001F008860FFF769FF4FF000600449086033
:1024F00010BD0000001002400000FFF8FFFFF6FED4
:1025000008ED00E00EB548E04FF0FF31012004F087
:102510007BF88DE807000D20012121B101228240C6
:102520001E4B1A6105E000F11002012393401B4A83
:10253000136100BF09221AA1002000F0CBFA4FF06E
:10254000FF31012004F060F88DE807000D20002124
:1025500021B101228240114B1A6105E000F1100205
:10256000012393400D4A136100BF41200F490968C0
:1025700001F0010179B10D498039096801F00101CB
:1025800049B100E000BF4FF0604109680029F9D06F
:102590004FF06042107000BF00BFB5E7001001406F
:1025A0004C4544204F46460D0A000000800E00E0D6
:1025B000002001F059B910B504462146002003F06F
:1025C00093FB10BD70B504460D462A4621460020F7
:1025D00003F092FB70BD00001CB504460020009083
:1025E00001902246694600F0F5F96A46214602A0AC
:1025F000FDF7C8FE1CBD00005553422041434D204D
:102600004461746120526563656976656428256458
:10261000293A25730000000010B502A0FDF7B2FEB4
:1026200010BD00005553422041434D204461746168
:102630002053656E740A000070B504460D461646B8
:1026400002A0FDF79FFE012070BD000055534220FF
:1026500067657420656E63617073756C6174696F12
:102660006E20726573706F6E73650A0010B5044654
:1026700005A0FDF787FE0A48016821608188A180D6
:102680008079A071012010BD5553422067657420E8
:102690006C696E6520636F64696E670A00000000F4
:1026A0000800002010B502A0FDF76CFE10BD000070
:1026B00055534220696E69740A00000010B502A0EB
:1026C000FDF760FE10BD00005553425F43444330A8
:1026D0005F41434D5F52455345540A0070B504466F
:1026E0000D4602A0FDF74EFE012070BD555342205D
:1026F00073656E6420456E63617073756C61746997
:102700006F6E205265717565737420436F6D6D61D6
:102710006E640A0010B5044602A0FDF733FE0120E6
:1027200010BD00005553422073657420636F6E74B2
:10273000726F6C206C696E652073746174650A0039
:1027400010B504460DA0FDF71DFE216812A0FDF78F
:1027500019FE217915A0FDF715FE617918A0FDF786
:1027600011FEA1791BA0FDF70DFE1F482168016035
:10277000A1888180A1798171012010BD2D2D2D5559
:10278000534220536574204C696E6520436F646921
:102790006E672D2D2D0A000044544520726174652A
:1027A00020627073090925640A0000004E6F2073CF
:1027B000746F702062697473090925640A0000004F
:1027C00050617269747920747970652009092564F3
:1027D0000A0000004E6F20446174612042697473E6
:1027E000090925640A0000000800002010B502A0B5
:1027F000FDF7C8FD10BD0000555342206465696EA9
:1028000069740A00002000F0D3B9002000F098BCE1
:102810000146002070470246002070470246002013
:10282000704701460020704701460020704701466E
:102830000020704701460020704701460020704785
:102840007047704770477047014600207047024646
:102850000020704701460020704703460020704763
:1028600001460020704701460020704701460020C5
:10287000704701460020704770477047704700203E
:1028800070470020704700002DE9F0411E461746B2
:1028900088460546002400F0A5F940B9054850F8DF
:1028A000253023B1324639464046984704462046F3
:1028B000BDE8F081587C000870B50546002400F0A2
:1028C00091F9C0B90D480E4950F82500007E51F825
:1028D000200086680B4850F8251061B10A488847E7
:1028E000040008D00848093850F8091F3160818871
:1028F000B1808079B071204670BD0000D47B0008A3
:10290000847B0008607C00080101002000207047E3
:1029100070B50E460546002400F064F970B9084809
:10292000084950F8250051F825203AB1007E0649A3
:1029300051F820003146806890470446204670BD1B
:10294000D47B0008547C0008847B0008002070477A
:1029500070B50E460546002400F044F960B90748FA
:1029600050F8251041B130468847040004D004488F
:1029700050F8250040690685204670BD647C00083B
:10298000D47B000870B50546002400F02BF9B0B9DF
:102990000C480D4950F82500007E51F820000B49E5
:1029A000806851F8251051B1094A0368C2F8023015
:1029B0008388D38080791072901C88470446204613
:1029C00070BD0000D47B0008847B00085C7C00089C
:1029D000F80000202DE9F05F14468B46814600F098
:1029E00001F9B8B9384951F829603849307E75691C
:1029F00051F82000C06890F8950006EB4000B0F850
:102A000028A0707E28B1B07E38B1A878002857D1B0
:102A100047E027204042BDE8F09F296AA869401A94
:102A200029D0844200D90446E9697068738C0A1A77
:102A3000A3EB0A00801A8046274644450CD3024681
:102A40005846FDF74EFD7068E861296AC34401EB02
:102A50000800A7EB0807286257B13A465846E969CB
:102A6000FDF73FFDE8693844E861286A3844286288
:102A7000A87810B125E00024FAE7296AA869401A6D
:102A8000718C091AB1EB4A0F1BD30220A870F17F99
:102A9000000240EA01310E4850F8290003F0B6F96F
:102AA0000FE0296AA869401A0AD0844200D9044676
:102AB000224658466969FDF714FDA8692862E4E7D3
:102AC00000242046A7E70000D47B0008847B000890
:102AD000540000202DE9F05F14468946824600F03C
:102AE00081F870B9304951F82A60707E756938B143
:102AF000B07E4FF0020B38B1287898B3002445E03F
:102B000027204042BDE8F09F2969A868401A318C0F
:102B1000081A28D0844200D90446326868682746DB
:102B2000121A02EB0108414644450CD30A464946B5
:102B3000FDF7D7FC30686860A968C14401EB080064
:102B4000A7EB0807A86057B13A4649466868FDF701
:102B5000C8FC686838446860A8683844A860287869
:102B600018B113E014E00024F9E72969A868884245
:102B70000CD000BF85F800B0B17F4FF4806040EA10
:102B800001310A4850F82A0003F040F92046B9E71D
:102B9000308CA04200D20446224649466868FDF7C0
:102BA000A0FCAC60E6E70000D47B000854000020E5
:102BB00070B5C4B2204600F015F8002811D1451EAA
:102BC000284603F02FF90101FAD4060AB00702D50E
:102BD000204600F09FF97007F2D5204600F09AF8E1
:102BE000EEE770BD0D490978884212D20C4951F8C0
:102BF000200070B1416961B10A49007E09788842BC
:102C000009D2094951F8200028B1C06818B1002044
:102C1000704727207047212070470000887B0008FC
:102C2000D47B0008807B0008847B00082DE9F041FC
:102C30000D460646FFF7D6FF002838D11D481E492D
:102C400050F82640207E676951F82000617FC068F7
:102C500041F08001A9422AD0E17FA94227D0617EBC
:102C600001291AD01548656B50F8260000B180473D
:102C700094F82C0001281AD0608CA84217D30220A7
:102C8000B870E07F4FF4007141EA00310C4850F811
:102C90002600BDE8F04103F0B9B8A17E09B1658C0A
:102CA000EAE790F8950004EB4000058DE4E7BDE805
:102CB000F0810000D47B0008847B00087C7C000845
:102CC000540000202DE9F0410E460746FFF78AFF29
:102CD000002818D10D484FF0000850F82740E07F39
:102CE0006569B04208D185F80280607E20B9084845
:102CF00050F8270000B18047A07F40F08000B0422C
:102D000001D185F80080BDE8F0810000D47B000887
:102D1000807C00082DE9F84F8346FFF763FF002809
:102D20007DD1784951F82B507749287E6C69009005
:102D300051F82000C06890F8950005EB4000B0F80D
:102D400028802078012809D000206A7E01210026F1
:102D5000012A0AD02278012A6FD0A4E0A87F40F08F
:102D60008001009801F0A2F8EFE7AA7E002A2278FD
:102D700002D0012A56D05CE0012A18D1B0B1E26835
:102D80000244E2602B8C2F681F44974201D8D21A6C
:102D9000E260226902442261A368934207D1B0FB3A
:102DA000F8F308FB130010B9617000E06670226947
:102DB000A068871A4046474500D9074660784FF01B
:102DC000FF3977B100B166706268E068904209D35C
:102DD0002B8C2A681A44C3199A4203D2A2EB000929
:102DE00000E0E8B12170D5F80CA0E168B84648468B
:102DF0004F4507D302465046FDF773FB2968CA4486
:102E0000A8EB0908B8F1000003D002465046FDF7D0
:102E100068FBA87F3B4640F08001EA6819E06EE05D
:102E200026701EE060B1B0FBF8F308FB1300A6604B
:102E300020B1607828B1002306E014E06170FAE761
:102E40006670A368002BEBD02170A87F626840F009
:102E50008001009800F05EFF0028E1D12078002872
:102E60004DD12A4843E0E8B195F82C20A2B995F855
:102E70002D3022695B1E1A4004EB82029665E268DF
:102E80002B6B1344E3602F8C2A6817449F4200D8B1
:102E9000E2602269521C2261A8F10102104202D1B3
:102EA000617000E066706078002388B995F82C00A6
:102EB00018B92269A068904202D12078022810D166
:102EC00095F82D202069521E104004EB8000836D80
:102ED0002170A87FE26840F08001009800F01AFF9E
:102EE00008B1267002E02078002808D1084850F880
:102EF0002B00002803D001B0BDE8F04F0047BDE82B
:102F0000F88F0000D47B0008847B00086C7C0008EC
:102F1000C47C00082DE9F14F82B00298FFF762FEF1
:102F200000287CD16649029851F820506C69287EAF
:102F30000090A078012809D00026687E4FF0000993
:102F4000012809D0A078012876D08BE0E97F00988D
:102F500000F0ACFF0646F0E7A87E28B1A078012873
:102F600045D002284BD055E05649009851F8200032
:102F7000C06890F8950005EB4000008D0190A078A6
:102F8000012824D11EB3676968686A8C391A0198D0
:102F9000D5F810B0101AA0EB010AB04650465645BD
:102FA0000BD3024659463846FDF79BFAA8EB0A00B8
:102FB0006F68D3445FEA000805D042465946384658
:102FC000FDF78FFA47446761A0693044A061216A28
:102FD000A069401A698C091A0198B1EB400F17D308
:102FE0000120A070DDE90003E97F2A690DE0002ED1
:102FF00063D084F80290A0693044A0610CE0012005
:10300000A0706B8CE97F6269009800F083FE08B1C4
:1030100084F80290002E50D02B48029901E04CE039
:103020000AE050F82110002947D0226AA06903B0B5
:10303000801ABDE8F04F0847A6B195F82E10A06998
:10304000491E084004EB800006666069696B014414
:1030500061616A8C686802448A4200D86061A06934
:10306000401CA06195F82C00012801D038B116E071
:10307000A078022813D10120A070236D09E0216AF5
:10308000A069401A95F82E10884208D20120A0703D
:103090006B6BE97F6269009800F03CFE08B184F830
:1030A0000290002E09D00948029950F8210000280A
:1030B00003D003B0BDE8F04F0047BDE8FE8F00002D
:1030C000D47B0008847B0008687C0008C87C00086A
:1030D00070B50446FFF786FD050025D1134850F86A
:1030E0002400407E01280AD0114800BF50F8240077
:1030F00000B180470F4E56F8240010B108E00E488A
:10310000F4E72146032002F045FE46F8240050B1C2
:103110000A4E56F8240038B92146042002F03AFE3F
:1031200046F8240000B91025284670BDD47B00085D
:10313000707C000850000020487C000854000020EB
:103140002DE9F047C6B23046FFF74CFD00282FD1DD
:103150004FF0FF390027484602F064FE0101FAD41F
:10316000000A4007F7D53046FFF73CFD0028F2D1B2
:10317000104951F826506C6995F81880E0780128BC
:1031800008D1687F40F08001404600F08FFEE17872
:10319000012909D00120E070687F636A40F0800156
:1031A0004046AA6800F0B6FD0028D4D0E770D2E708
:1031B000BDE8F087D47B000870B50E4605460024B4
:1031C000FFF710FD30B9044850F8252012B1304601
:1031D00090470446204670BDBC7C00082DE9F041B4
:1031E00016460F4605460024FFF7FCFC38B9054893
:1031F00050F825201AB131463846904704462046FB
:10320000BDE8F0818C7C00082DE9F04116460F46A0
:1032100005460024FFF7E6FC38B9054850F825209C
:103220001AB131463846904704462046BDE8F08141
:10323000947C000870B50E4605460024FFF7D2FCCA
:1032400030B9044850F8252012B130469047044662
:10325000204670BDB47C000870B50E4605460024BB
:10326000FFF7C0FC30B9044850F8252012B13046B1
:1032700090470446204670BD9C7C000870B50E4601
:1032800005460024FFF7AEFC30B9044850F825206D
:1032900012B1304690470446204670BDA47C000819
:1032A00070B50E4605460024FFF79CFC30B9044873
:1032B00050F8252012B1304690470446204670BD94
:1032C000AC7C000870B50E4605460024FFF78AFC6A
:1032D00030B9044850F8252012B1304690470446D2
:1032E000204670BD987C000870B50D460646002447
:1032F000FFF778FC68B9084850F8261049B128460D
:103300008847040005D0054850F82600406980F839
:103310002B50204670BD0000C07C0008D47B000804
:103320002DE9F04116460F4605460024FFF75AFCEA
:1033300038B9054850F825201AB13146384690472B
:1033400004462046BDE8F081847C000870B50E4636
:1033500005460024FFF746FC30B9044850F8252004
:1033600012B1304690470446204670BD907C00085C
:103370002DE9F0411E461746884605460024FFF712
:1033800031FC40B9054850F8253023B13246394662
:103390004046984704462046BDE8F081887C0008F6
:1033A00070B50E4605460024FFF71CFC60B90748BF
:1033B00050F8251041B130468847040004D0044835
:1033C00050F8250040698685204670BDB87C00080D
:1033D000D47B000870B50E4605460024FFF702FCBA
:1033E00030B9044850F8252012B1304690470446C1
:1033F000204670BDA07C000870B50D46064600242E
:10340000FFF7F0FB68B9084850F8261049B1284684
:103410008847040005D0054850F82600406980F828
:103420002A50204670BD0000A87C0008D47B00080C
:1034300070B50E4605460024FFF7D4FB60B9074877
:1034400050F8251041B130468847040004D00448A4
:1034500050F8250040690663204670BDB07C000826
:10346000D47B00082DE9F0410746FFF7BBFB00289D
:1034700056D12C480026842150F827506C692046EC
:10348000A6702670FDF7C6F8286860602868E060BE
:10349000686860616868E061687E012824D055F83A
:1034A000300F20632889A0851C2024F8680F15F8A8
:1034B000010C60802868606068892081A88960812B
:1034C000E889A081E68168682061288AA082688AEC
:1034D000E082A88A20831448668350F827000028D9
:1034E0001ED0BDE8F0410047A87E40B90F482685B0
:1034F0004FF41651016006714671082181710C4824
:1035000050F8270000B18047A87E002808D109485C
:1035100050F82710002903D0BDE8F04103480847C0
:10352000BDE8F081D47B0008787C00080801002009
:10353000507C00085C7C00082DE9F0410446FFF750
:1035400051FB050020D1134E002756F8240020B16E
:1035500002F07DFC40B946F824700F4E56F8240066
:1035600030B102F074FC08B110250DE046F824706B
:103570000A4850F82400407E012808D0084800BFBF
:1035800050F8240000B180472846BDE8F081054886
:10359000F6E700005400002050000020D47B000813
:1035A000747C00084C7C000807490978884209D2DD
:1035B000064951F8200028B1C16819B1006808B166
:1035C0000020704721207047807B0008847B000822
:1035D0002DE9F04106460027002412E00B4850F880
:1035E0002400406958B1094850F82400007EB042D8
:1035F00005D12046FFF76CFD054605B12F46601C3E
:10360000C4B2012CEADB3846BDE8F081D47B000867
:103610002DE9F04106460027002412E00B4850F83F
:103620002400406958B1094850F82400007EB04297
:1036300005D12046FFF780FF054605B12F46601CE7
:10364000C4B2012CEADB3846BDE8F081D47B000827
:103650000146002070470146002070477047014630
:103660000020704710B50446FFF79EFF002804D1E4
:103670002046BDE8104000F021BA10BD70B50446E8
:103680002D4E0D46C80704D056F8241009B101206C
:103690008847A80707D556F8241009B100208847A5
:1036A000204602F0B1FA680721D5204602F0ACFAB4
:1036B000224850F824000668F078B38800F003022E
:1036C000B178204600F064FA48B9F078B38800F089
:1036D0000302B07840F08001204600F059FA2046FD
:1036E00002F078FA164850F8240000B18047280705
:1036F0000BD51449012051F82410C96881F89500B0
:10370000114850F8240000B18047E80604D50F485E
:1037100050F8240000B18047A80604D50C4850F8A2
:10372000240000B18047290A480704D02046BDE89C
:10373000704000F0C5BD70BDD47C0008D4000020EE
:10374000D87C0008847B0008DC7C0008E07C000852
:10375000E47C000810B504460C480078844201D38C
:10376000002010BD0A4850F82400C0680028F8D096
:103770000849D0F8AC0051F8241088470028F0D14F
:103780002046BDE81040FFF763BF0000807B0008C3
:10379000847B0008007D000810B504460C480078C2
:1037A000844201D3002010BD0A4850F82400C068AC
:1037B0000028F8D00849D0F8AC0051F82410884708
:1037C0000028F0D12046BDE81040FFF744BF0000BC
:1037D000807B0008847B0008FC7C000810B5044650
:1037E0000A48007884420FD2094850F82400C06883
:1037F000002809D00749A03051F8241088472046F6
:10380000BDE81040FFF72ABF10BD0000807B000814
:10381000847B0008F87C000810B504460F48007847
:10382000844201D3002010BD0D4850F82400C06828
:103830000028F8D00021C0F8A810C0F8AC10094941
:1038400000F1AC0251F82430111FA0309847002835
:10385000E9D12046BDE81040FFF701BF807B00089A
:10386000847B0008F47C00082DE9F047C6B22048AC
:103870000078864239D21F4800244FF0FF3750F8B5
:103880002600D0F800901C4850F82600C10708D048
:10389000810701D401246427400702D444F00204C4
:1038A00064274FF00008E00701D0012119E03846F5
:1038B00002F0B8FA0146000113D5D9F81C00804780
:1038C00000F001054545F2D0A846E00704D01DB13F
:1038D00001213046FFF7D2FEA007E8D5002DE6D142
:1038E00002213046FFF7CAFEE1E7BDE8F08700009D
:1038F000807B0008847B0008A000002070B5174979
:1039000051F82010C9B1CC68BCB1D4F89C20002576
:10391000AAB1497D491E0A4202D1012184F89610BC
:10392000D4E92623802100F0F5F9002804D1F4E938
:1039300026121144C4E9001570BD212070BD94F811
:10394000961049B100231A46802100F0E3F90028BF
:10395000F4D184F8965070BD222070BD847B00089D
:10396000094910B551F82010CC680021D4E926236C
:1039700000F0D0F9002805D1F4E9260108442060C0
:103980000020606010BD0000847B000810B5044674
:10399000204602F093FD404210BD704770477047CB
:1039A00001460020704701460020704770470346DB
:1039B0000020704770477047704710B5FFF7FAFF57
:1039C00010BD704770477047704700000948007885
:1039D00010B94FF0FF307047012007490860002000
:1039E0000860091D08604FF4E050091F08600020BE
:1039F000F1E700002C000020405C00400548007802
:103A000010B94FF0FF3070470320034908600020D1
:103A1000F9E700002C000020405C004008B50E488B
:103A20000068009960F3000100910B4800684108AC
:103A3000009861F34200009007480068C1080098B0
:103A400061F3C3000090044800680109009861F325
:103A50001F100090009808BD3000002010B50C48E1
:103A6000007810B94FF0FF3010BD0A4800680949CE
:103A70000968084307490860022002F01FFD054855
:103A80000068044909688843024908600020EBE7A0
:103A90002C000020405C004001460648007810B928
:103AA0004FF0FF30704741F08000034A1060002063
:103AB000F8E700002C0000204C5C00402DE9F041AC
:103AC00005460324154E08E056F82500642102F04F
:103AD000AFF828B10A20FFF759FF641EE4B2F3D211
:103AE000BCB1DFF83C80022758F825000068406927
:103AF0008047040005D00A20FFF748FF7F1EFFB271
:103B0000F2D256F8250002F0E2F824B12220BDE8F6
:103B1000F0812320FBE70020F9E700004C000020A3
:103B2000847B00082DE9F047894605460324164E9C
:103B300009E000BF56F82500642102F079F828B1A9
:103B40000A20FFF723FF641EE4B2F3D2C4B1DFF80A
:103B50003C80022758F825000068416A484688479B
:103B6000040005D00A20FFF711FF7F1EFFB2F1D23B
:103B700056F8250002F0ABF824B12220BDE8F0870A
:103B80002320FBE70020F9E74C000020847B00089D
:103B90002DE9FF5F894601F00F020546102101EA79
:103BA000D9002C499B4610440B786B4302EB43022F
:103BB000D4B2102802D309782144CCB2264F142263
:103BC00002EB800057F82510C968085820B1494613
:103BD000284600F011F9A0BBDFF88080022600BF64
:103BE00058F82400642102F023F828B10A20FFF7D6
:103BF000CDFE761EF6B2F3D24EB303264FEA070A85
:103C00005A465AF8250002990068C36A4846984700
:103C10000746801D06280CD2DFE800F00B0B0B03D3
:103C20000303761E16F0FF0603D00A20FFF7AEFE50
:103C3000E6E758F8240002F04AF817F1020F06D020
:103C40001FB1222004B0BDE8F09F0020FAE7232036
:103C5000F8E700003C7C0008847B0008B02A0020C4
:103C60002DE9F05F9346894601F00F0205461021C9
:103C700001EAD900244910440B786B4302EB43025C
:103C8000D4B2102802D309782144CCB2DFF87CA04A
:103C9000142202EB80005AF82510C968085820B198
:103CA0004946284600F0A8F838BBDFF864800226B1
:103CB000642158F8240001F0BBFF28B10A20FFF767
:103CC00065FE761EF6B2F3D2E6B102275AF8250059
:103CD00059460068426B48469047060005D00A20C6
:103CE000FFF754FE7F1EFFB2F0D258F8240001F017
:103CF000EEFF16F1020F05D016B12220BDE8F09FAD
:103D00000020FBE72320F9E73C7C0008847B0008C7
:103D1000B02A00202DE9FF5F884601F00F03334AE7
:103D20000446102101EAD80018440127157807FA43
:103D300000F1654303EB4503DDB2102802D312788E
:103D40002A44D5B22A4B53F82420D268D6680E42B2
:103D50004AD1142101EB80099A4652F8090038B182
:103D60005FEA087040D14146204600F045F8A8BB04
:103D7000DFF880B0022600BF5BF82500642101F067
:103D800057FF28B10A20FFF701FE761EF6B2F3D2E4
:103D900056B35AF82410CA6842F809705FF0020757
:103DA0005AF82400DDE902120068836B4046984708
:103DB00006000BD00A20FFF7E9FD7F1EFFB2EFD20D
:103DC0005AF824000021C26842F809105BF8250067
:103DD00001F07DFF16F1020F06D01EB1222004B0C3
:103DE000BDE8F09F0020FAE72320F8E73C7C0008BC
:103DF000847B0008B02A00202DE9F05F8A4601F09C
:103E00000F020446102101EADA00254910440B781C
:103E1000634302EB4302D5B2102802D30978294448
:103E2000CDB2DFF8808058F82410CA68142101EB65
:103E3000800B52F80B00002820D0DFF86C9002268F
:103E4000642159F8250001F0F3FE28B10A20FFF79C
:103E50009DFD761EF6B2F3D27EB1022758F82400FB
:103E60000068016C50468847060009D00A20FFF719
:103E70008DFD7F1EFFB2F1D208E02320BDE8F09F48
:103E800058F824000021C26842F80B1059F82500A8
:103E900001F01DFF0EB12220F0E70020EEE7000048
:103EA0003C7C0008847B0008B02A00202DE9F0410A
:103EB00080460E46102001F00F0200EAD6001118CD
:103EC00015481029047808FB04F302EB4302D4B22E
:103ED00002D300782044C4B2104F0225642157F861
:103EE000240001F0A5FE28B10A20FFF74FFD6D1E4A
:103EF000EDB2F3D275B10A4951F828000068C16BE0
:103F000030468847054657F8240001F0E0FE284671
:103F1000BDE8F0810020FBE73C7C0008B02A0020CF
:103F2000847B00082DE9F047894601F00F02054621
:103F3000102101EAD900254910440B786B4302EBAC
:103F40004302D4B2102802D309782144CCB2DFF85E
:103F500080A0142202EB80005AF82510C968085886
:103F600020B149462846FFF747FF38BBDFF8648099
:103F7000022600BF58F82400642101F059FE28B140
:103F80000A20FFF703FD761EF6B2F3D2DEB1022758
:103F90005AF825000068016B48468847060005D09E
:103FA0000A20FFF7F3FC7F1EFFB2F1D258F824007D
:103FB00001F08DFE16F1020F05D016B12220BDE8EA
:103FC000F0870020FBE72320F9E700003C7C000895
:103FD000847B0008B02A0020024951F820000068C4
:103FE00040680047847B0008024951F820000068BF
:103FF00000680047847B00082DE9F04791468A4617
:1040000005460324164E08E056F82500642101F009
:104010000FFE28B10A20FFF7B9FC641EE4B2F3D208
:10402000CCB1DFF840800227494658F825000068E7
:10403000826850469047040005D00A20FFF7A6FC8E
:104040007F1EFFB2F0D256F8250001F040FE24B1E9
:104050002220BDE8F0872320FBE70020F9E70000DD
:104060004C000020847B00082DE9F0478946054676
:104070000324164E09E000BF56F82500642101F024
:10408000D7FD28B10A20FFF781FC641EE4B2F3D209
:10409000C4B1DFF83C80022758F8250000680169A8
:1040A00048468847040005D00A20FFF76FFC7F1EB2
:1040B000FFB2F1D256F8250001F009FE24B122200A
:1040C000BDE8F0872320FBE70020F9E74C00002043
:1040D000847B00082DE9F047894605460324164EE7
:1040E00009E000BF56F82500642101F0A1FD28B1C8
:1040F0000A20FFF74BFC641EE4B2F3D2C4B1DFF830
:104100003C80022758F825000068816A48468847A5
:10411000040005D00A20FFF739FC7F1EFFB2F1D260
:1041200056F8250001F0D3FD24B12220BDE8F08728
:104130002320FBE70020F9E74C000020847B0008E7
:104140002DE9F84303464FEA037C4FEADC6C0CEBA5
:10415000D31C0CEB8C0CDFF8B88008EB8C0003F060
:104160000F06DFF8B0C0DCF800C00CEB061CBCF892
:104170000CC0CCF3090109B9BDE8F883D0F800C040
:10418000BCF1000F00D1F7E7DFF888C0DCF800C011
:104190000CEB061CDCF808C0DFF87C804FF002094D
:1041A00009FB0C84D0F800C0D0F808800CEB0802A2
:1041B0004D0804E054F8048B22F8028B6D1E002D8C
:1041C000F8D1D0F808C08C44C0F808C001F0010C48
:1041D000BCF1000F0AD01746D4F800C01FFA8CFCBF
:1041E000ADF800C09DF800C087F800C0B0F80EC060
:1041F0008C4504D04FF0000CC0F804C005E0D0F8A6
:1042000004C0ACEB010CC0F804C000BFB4E7000070
:104210006828002040000020006000402DE9F047A1
:1042200006463007C00E00EBD61000EB8000204998
:1042300001EB800406F00F076068E189884201D92C
:10424000E58901E0606885B22068A16800EB010A99
:104250001848006800EB071000681749022202FBAB
:104260000019A5816068401B6060681C4FEA500817
:1042700007E03AF8020B49F8040BA8F101001FFA15
:1042800080F8B8F1000FF4D10A48006800EB07107D
:1042900045600A4901EB8700D0F8000C00F03000BF
:1042A000102803D030213046FDF730FABDE8F08702
:1042B00068280020400000200060004000500040BE
:1042C0002DE9F0470546DC4888460078854278D2DB
:1042D000DFF8689359F82570002F72D0FC68002C25
:1042E0006FD05FEA48704FF0000632D594F8A00016
:1042F000000621D5D4F89C0010B994F8960020B19E
:104300002846FFF7FBFA20B30AE094F8970000B3C1
:1043100084F897602846FFF71DFA48B1012807D0B6
:10432000012200212846FFF79BFCC4F89C6010E0A6
:10433000284601F012FD0CE0284601F006FD40B9C8
:104340006078010605D500F07F0161702846FFF70F
:10435000E9FB5FEA887045D594F8A00001063ED4D9
:10436000D4F89C1021B12846FFF7FAFA50B32EE09A
:1043700094F8971059B184F897602846FFF70CFA23
:1043800008B1012823D1284601F0DAFC2AE0C0F365
:104390004111E1B101291AD110F01F0017D00128F5
:1043A00002D0022813D10EE0284600F0D3F948B914
:1043B000284600F049F928B9284600F049F908B91B
:1043C00005E04AE00EE0284600F03BF9F7E701225D
:1043D00080212846FFF744FCC4F89C6002E0284690
:1043E00001F0C0FC5FEAC87037D02846C84659F8CB
:1043F0002010C968A031FFF76DFE00282DD1284696
:10440000FFF70AFA0121B8B3012863D1D4F8A80054
:1044100018B9D4F8AC20002A5CD1B4F8A620F2B1C7
:10442000C4F89800D4F8AC00C4F89C0084F8971045
:1044300094F8A0301B0603D42846FFF791FA0AE04F
:10444000904205D27A7D521E104201D184F8961016
:104450002846FFF753FA00283CD1BDE8F08794F8CE
:10446000A0000006284603D4BDE8F04701F068BC70
:10447000BDE8F04701F071BCB868C4F89800B4F822
:10448000A6007A8B904202D9C4F89C2001E0C4F8BF
:104490009C0094F8A000C0F3411222B1012A7DD003
:1044A000022A17D19BE094F8A1000C2812D2DFE871
:1044B00000F00612AF14AF1A34AF3A5054712846C8
:1044C00001F07CF82CE02846FFF788F92846FFF732
:1044D00015FAE0B39CE0002100E00121284601F03C
:1044E000C7F898B994E058F82500C06880B3B0F8D0
:1044F000A41069BBB0F8A61051BB90F8A010C90673
:1045000026D190F8A21041F0800141702846FFF7B3
:1045100065F9284601F014FC68E0284600F02AFFFF
:104520000028D0D174E058F82500C06880B1B0F8F8
:10453000A2206AB9B0F8A42052B9B0F8A620012A86
:1045400066D190F8A020D20662D1021D1EE04AE09A
:1045500040E0284601F014F9C3E758F82520CAB313
:10456000D068B8B3B0F8A230A3BBB0F8A630012B26
:104570004ED190F8A03003F01F03012B48D1B0F8C2
:10458000A430578ABB4243D252681A44C0E926215C
:1045900099E703E0284601F027FAA2E710F01F0090
:1045A00036D0012802D0022832D114E0284600F08B
:1045B0007BFA58B9284600F07AFA38B9284600F054
:1045C000D5F818B9284600F0D5F818B12846FFF7F5
:1045D00005F90BE01CE0284600F0C5F8F5E7284691
:1045E00000F092FF9CE7284601F0B7FB94F8A0008A
:1045F00000063FF532AFB4F8A60000283FF42DAF17
:104600002846FFF7ADF90028F8D00122802109E003
:1046100094F8A0000006B4F8A60009D40028F4D04D
:10462000012200212846FFF71BFBC4F89C6014E719
:104630000028EAD1F4E70000807B0008847B0008B2
:104640007047014600207047014600207047000077
:104650002DE9F04107463B48007887426BD23A4843
:1046600050F82750002D66D0EC688CB30026DFF898
:10467000DC805CE0364850F8260040B3017EB94249
:1046800053D1B4F8A410C27E914202D0007F81427F
:104690004BD194F8A10041282CD007DC68B1022846
:1046A00017D020281BD040283FD11CE082282AD0D8
:1046B00086282DD0882838D130E0B4F8A6103046AE
:1046C000FEF726F92FE0384601F03AFBB0B32CE0B4
:1046D00031E0B4F8A2103046FEF738F923E0304656
:1046E000FEF750F91FE0B4F8A2203046A968FEF7A3
:1046F00017FE18E0B4F8A630B4F8A2103046AA6845
:10470000FEF736FE0FE03046A968FEF763FE0AE0CA
:10471000A86801683046FEF78BFE04E0A8680188AF
:104720003046FEF73DFE0028CDD1761CF6B298F853
:10473000000086429ED30020BDE8F081FFE7012003
:10474000FAE70000807B0008847B0008887B000873
:10475000D47B0008014600207047034600207047C4
:1047600002460020704701460020704701460020A5
:10477000704700002DE9FC5FC749804609788842F0
:1047800077D2C64951F82850002D72D0EC68002C21
:10479000FBD000274FF0040B4FF00209DFF800A315
:1047A00072E1C04850F82760002E6ED0307E404540
:1047B0006BD1B4F8A400F17E884202D0317F8842E8
:1047C000F6D194F8A100432876D01DDC212874D0BE
:1047D0000DDC03285AD005DC80B3012832D0022832
:1047E000E6D147E004285DD02028E1D168E04028E8
:1047F00071D004DC22286FD02328D9D18DE0412844
:104800001CD04228D4D1C2E0852874D00EDC822886
:1048100072D006DC442870D080286FD08128C7D1A0
:10482000E6E083286BD08428C2D1FBE086380528D7
:104830002BD2DFE800F09DF01FEFEE00A868C4F86F
:1048400098009FE000200090ADF80400B4F8A61096
:1048500001AB6A463846FEF717F8002815D00099D4
:10486000002906D0BDF80400002802D0C4E92610B3
:1048700012E07BE0D4F89C00022877D3A868C4F843
:1048800098007FD9C4F89C907CE070E0B4F8A21046
:104890003846FDF7F6FF80E04046FFF72FF8002886
:1048A00074D0EFE0B4F8A60000285FD1B4F8A210ED
:1048B0003846FDF7E4FF2BE07AE00EE0B0B3E1E02C
:1048C000D4F89C00072851D3A868C4F8980059D997
:1048D0004FF007003CE02AE012E03846FDF7ECFF1D
:1048E000002844D0A868C4F89800D4F89C00072891
:1048F000D2D9072089E09FE02DE062E068E08CE0FB
:10490000B4F8A60090BBB4F8A2103846FEF720F821
:1049100068B3404601F014FAD0E7B4F8A60028BB0B
:10492000B4F8A2103846FDF7F1FFF1E712E0B4F851
:10493000A200D4F89C1000EB4002B1EB420F15D35B
:10494000A968C4F898101DD900EB40004FEA400058
:10495000C4F89C0016E0D4F89C00062806D3A8688A
:10496000C4F898000ED94FF00600F1E754E04FE08C
:10497000D4F89C0004284FD3A868C4F8980001D943
:10498000C4F89CB04FF00100BDE8FC9F6DE0B4F8A6
:10499000A2103846AA68FEF721FCC8B3A868C4F87C
:1049A0009800D4F89C000228A2D9C4F89C9073E720
:1049B000B4F8A60080BBB4F8A2103846FEF7C6FCD7
:1049C000A6E7B4F8A2103846AA68FEF71DFC37E047
:1049D000716938466831FEF775FCC8B17069683096
:1049E000C4F89800D4F89C001C28E0D91C200CE0E6
:1049F0003846A968FEF730FC50B1A868C4F89800A2
:104A0000D4F89C000628D2D90620C4F89C0043E7BD
:104A100038E02EE024E01EE03BE03846A968FEF7CF
:104A20002DFCBAE7B4F8A60098BB706990F82A107C
:104A30003846FEF7E1FC6BE73846A968FEF730FC24
:104A400000B3A868C4F89800D4F89C000428AED934
:104A5000C4F89CB020E73846A968FEF7EBFB9CE75A
:104A60003846A968FEF7A8FB97E7404601F075F9BC
:104A700024E7B4F8A60060B9B4F8A2103846FEF7EF
:104A800033FC45E77F1CFFB29AF800008742FFF431
:104A900088AE002078E70000807B0008847B000857
:104AA000887B0008D47B000801460020704701463F
:104AB000002070472DE9F05F04468A46934604F0D3
:104AC0000F05082D03D94FF0FF30BDE8F09F634874
:104AD000007810B94FF0FF30F7E72007C00E00EB69
:104AE000D41000EB80005E4901EB800898F81000BC
:104AF00010B16FF00100E8E7CBF30A06C4F3C01968
:104B00002007C00E00EBD410564931F8100081196F
:104B10002007C00E00EBD410401C524A32F810009F
:104B2000814202DD4FF0FF30CFE714214046FBF712
:104B300071FDA8F80E60B9F1000F0CD02007C00E6F
:104B400000EBD410474931F810004749096801EBE0
:104B50000511086027E02007C00E00EBD410414982
:104B600031F810004049096801EB051188603E2EBC
:104B70000FDD06F11F0020F01F0086B20120C0EB00
:104B8000461040F400403849096801EB0511C8603F
:104B900009E0701C20F0010086B2700232490968F9
:104BA00001EB0511C860BAF1000F09D0BAF1010F8D
:104BB00009D0BAF1020F09D0BAF1030F0BD107E007
:104BC0004FF4007707E04FF4806704E0002702E02D
:104BD0004FF4C06700BF00BF24B94FF448502349C9
:104BE000086038E0802C36D02F43214901EB850046
:104BF000C0F8007CB9F1000F16D0280701EB9060D7
:104C0000D0F8000C48F6FF71084040F0800040F4F6
:104C100000402907164A02EB9161C1F8000C2021DF
:104C20002846FCF773FD16E02807114901EB906058
:104C3000D0F8000C4FF68F71084040F0800040F42F
:104C4000004029070A4A02EB9161C1F8000C511497
:104C50002846FCF7A7FD002037E700002C000020C5
:104C600068280020D47A000840000020005C004042
:104C7000005000402DE9F04105460F4605F00F04B5
:104C8000082C03D94FF0FF30BDE8F0812B480078A5
:104C900010B94FF0FF30F7E72807C00E00EBD51032
:104CA00000EB8000264901EB800898F8100010B155
:104CB0006FF00100E8E7C5F3C016012F0BD126B154
:104CC00010212046FCF722FD35E04FF480512046AC
:104CD000FCF768FD2FE0BEB120071A4901EB906098
:104CE000D0F8000C48F6FF71084040F0800040F416
:104CF00000402107134A02EB9161C1F8000C20210A
:104D00002046FCF703FD16E020070E4901EB9060FA
:104D1000D0F8000C4FF68F71084040F0800040F44E
:104D200000402107074A02EB9161C1F8000C5114C1
:104D30002046FCF737FD0020A6E700002C000020ED
:104D4000682800200050004070B506460D4600243B
:104D500026E0154850F824004069F8B1124850F890
:104D60002400007EB04219D10F4850F82400407F43
:104D700040F08000A8420DD00B4850F82400807FFE
:104D800040F08000A84205D0074850F82400C07FBA
:104D9000A84203D129462046FDF748FF601CC4B253
:104DA000012CD6DB70BD0000D47B000870B5064630
:104DB0000D46002426E0154850F824004069F8B15B
:104DC000124850F82400007EB04219D10F4850F824
:104DD0002400407F40F08000A8420DD00B4850F8DE
:104DE0002400807F40F08000A84205D0074850F89A
:104DF0002400C07FA84203D129462046FDF762FF68
:104E0000601CC4B2012CD6DB70BD0000D47B00084E
:104E10002DE9F04705460E46174605F00F08B8F194
:104E2000080F03D94FF0FF30BDE8F0871548007830
:104E300010B94FF0FF30F7E72807C00E00EBD51090
:104E400000EB8000104901EB8004207C10B16FF072
:104E50000100E9E7C5F3C0190120207426606760EE
:104E60000020A060A081B9F1000F03D02846FFF711
:104E7000D5F904E04FF440514046FCF793FC002084
:104E8000D2E700002C00002068280020F0B504467E
:104E900004F00F06082E02D94FF0FF30F0BD114884
:104EA000007810B94FF0FF30F8E7C4F3C0172007BF
:104EB000C00E00EBD41000EB80000B4901EB800525
:104EC0000020686027B120213046FCF71FFC04E079
:104ED0004FF400513046FCF765FC0020287400BFF9
:104EE000DCE700002C00002068280020014601F0CB
:104EF0000F00082801D9002070470807C00E00EBFA
:104F0000D11000EB8000024A02EB80008068F3E7DA
:104F1000682800202DE9F041054605F00F04082C13
:104F200003D94FF0FF30BDE8F0812648007810B972
:104F30004FF0FF30F7E72807C00E00EBD51000EB6D
:104F40008000214901EB8006307C10B16FF0010038
:104F5000E9E7C5F3C017BFB120071C4901EB90601A
:104F6000D0F8000C48F6FF71084040F0800040F493
:104F700000402107154A02EB9161C1F8000C0021A5
:104F80002046FCF7C3FB16E02007104901EB9060B8
:104F9000D0F8000C4FF68F71084040F0800040F4CC
:104FA00000402107094A02EB9161C1F8000C002181
:104FB0002046FCF7F7FB14213046FBF72BFB0020C3
:104FC000B1E700002C0000206828002000500040BD
:104FD0000148006870470000D07A00080448007853
:104FE00008B90020704703480068C0F30A00F9E7D9
:104FF0002C000020485C004008B502480068009082
:1050000008BD0000CC7A0008024607480078012855
:1050100001D1002070470548026005480160012069
:10502000014B18700020F5E72D000020240000201F
:10503000280000202DE9F05F0446FEF7B5FA0500D0
:1050400078D15C4850F82400C768387810B1002047
:10505000BDE8F09F2046FEF7C7FF574901EB8401EA
:1050600008602046FEF7B8FF544941F82400B021FB
:105070003846FBF7CFFADFF84CA1DFF84491DFF8B0
:1050800048B19AF8000059F8241004FB00F639B929
:1050900000222146104600F0DFFD49F8240078B3D5
:1050A000002510E005EB460000F0FF085BF8280043
:1050B00038B92A462146012000F0CEFD4BF82800E1
:1050C000F0B16D1CEDB29AF80000B5EB400FE9D3DA
:1050D0003E4850F82400426A3AB1364850F824005D
:1050E000C18A11B11046FBF773FA394850F8240011
:1050F00000B180472046FEF76BFA050023D102E09D
:10510000FFE712251FE0334D55F8240030B9214642
:10511000002000F03FFE45F8240060B12E4850F812
:1051200024202E4850F824102046FEF765FF050085
:1051300009D102E03BE010250EE002212046FEF7F7
:1051400093FF050012D0234F57F8240020B100F040
:105150007EFE002047F824002046FEF759FA20483A
:1051600050F8240000B18047002712E00120387079
:105170001DE000BF07EB460000F0FF085BF82810B9
:1051800029B1084600F098FD00204BF828007F1C4C
:10519000FFB29AF80000B7EB400FEBD359F82400A8
:1051A0004E4620B100F088FD002046F82400284635
:1051B0004EE70000847B00089C000020A000002037
:1051C0004C0000203C7C0008B02A0020D4000020C5
:1051D000CC7C000848000020447C0008407C00088B
:1051E000D07C000810B5044614B1022C7DD14BE0F0
:1051F0004548C06940F400004349C86114200028B4
:1052000017DB00F01F0201219140404A430942F898
:10521000231000BF00BF00BFBFF34F8F00BF00BF10
:1052200000BF00BF00BF00BFBFF36F8F00BF00BF54
:1052300000BF00BF1420002807DB00F01F0201217F
:105240009140334A430942F8231000BF00203149FE
:1052500008700320304908602B48006940F40000C2
:105260002949086100202D4908702D48002101605E
:105270004FF4B4712B48FBF7CDF92348C06920F4F3
:1052800000002149C8613CE02748007810B94FF080
:10529000FF3010BD1F480078012801D10020F8E739
:1052A0001948C06940F400001749C8610846006900
:1052B00040F400000861012001F000F91248006983
:1052C00020F400001049086100F05AFC0120114947
:1052D0000870142000280FDB00BF00BF00F01F0281
:1052E000012191404209920000E007E002F1E02232
:1052F000C2F8001100BF00BF00BF02E06FF0030062
:10530000C7E700BF0020C4E70010024080E100E0D2
:1053100080E200E02C000020405C00403C000020C7
:1053200030000020682800202D00002001460E4893
:10533000007810B94FF0FF3070470C48007810B972
:105340004FF0FF30F8E70020084A10700848026864
:105350000A60406848600548007810B14FF0FF309F
:10536000EAE70020E8E700002C0000203C000020D5
:10537000340000202DE9F0415F490978884273D25A
:105380005E4951F82060002E6ED0F568002D6BD07C
:10539000B5F8A610002967D095F8A010584C11F068
:1053A0001F0102D001295FD186E0B5F8A22055493E
:1053B000130A082B58D2DFE803F090041D58909090
:1053C0000E3F12F0FF0F4FD151F820004068C5F892
:1053D000980012206EE0727C002A7ED095F895200D
:1053E00051F8200022B1C068C5F898000A2061E099
:1053F0008068F9E7737C002B95F8953007D03BB1B6
:1054000051F82000406920600020D2B20BE05BBB65
:1054100051F820000069F6E721680B7813B14B883A
:1054200019442160401C8242F6D120680178D9B12C
:10543000C5F8980040883DE0737CABB195F8953095
:1054400051F8200023B1C06920600020D2B208E0EA
:105450008069F9E721680B7813B14B881944216002
:10546000401C8242F6D1E0E737E0D2B2032A05D1F0
:1054700051F820305B6A0BB11F782FB9EE2A05D1A5
:1054800051F820309B6A0BB123600DE051F82000E9
:10549000006A2060002005E02368197809B11944EA
:1054A0002160401C8242F7D120680178A9B1C5F87B
:1054B00098000078606009E0114A121D111FFFF783
:1054C0004CF900280AD02068C5F89800B5F8A60065
:1054D0006168884204D3084603E00020BDE8F081FB
:1054E0006060C5F89C00717D491E014202D1012017
:1054F00085F896000120F1E7807B0008847B000896
:10550000E8000020D400002070B5284909788842BE
:1055100020D2274951F82060E6B1F468D4B194F85C
:10552000A110327E914215D1B4F8A210090A11D10E
:10553000B4F8A61071B194F8A0101E4D11F01F011F
:1055400002D0012906D10EE0B4F8A410042903D03A
:1055500005290CD0002070BD174951F82000C06A01
:1055600080B1A8600AE0B4F8A41005290AD1114955
:105570000831FFF7F5F80028EDD0A868C4F89800C6
:105580000068E860B4F8A600E968884201D30846DC
:1055900000E0E860C4F89C00717D491E014202D120
:1055A000012084F89600012070BD0000807B000877
:1055B000847B0008E8000020D4000020F0B52A49D0
:1055C000097888424ED2294951F82020F2B3D06898
:1055D000002846D0926800F19801BAB3B0F8A23022
:1055E000A3BBB0F8A630022B3CD190F8A0304FF00E
:1055F000020613F01F0305D00024012B09D0022B53
:1056000030D110E0B0F8A42002BB801CC1E9000634
:1056100026E00379D3B190F8A43090F89400834247
:1056200020D2147019E090F8A430102703F08F05F1
:1056300005F00F0307EAD5071F440123BB40077994
:105640000FB92D070ED185681D4200E00AE009D090
:10565000C068184000D0012010705470C1E90026C5
:105660000120F0BD0020F0BD807B0008847B000895
:105670002DE9F04107463E480078874268D23D4810
:1056800050F82700C468002C62D0B4F8A6000028A7
:105690005ED194F8A00010F01F0004D0012857D06C
:1056A000022855D117E0B4F8A200012850D141B129
:1056B000314850F8270000B18047608840F0020070
:1056C00007E02E4850F8270000B18047608820F09E
:1056D000020060804AE094F8A400102200F08F06D7
:1056E00006F00F0002EAD602104401252279854017
:1056F00072B3A2682A422BD0B4F8A220B2BB320700
:1057000026D0C9B1E168294230D104EB800040695C
:1057100020B131463846FEF76FFBC8B90122314649
:105720003846FEF79DFA98B9E06831462843E060B4
:105730003846FFF73BFB19E0E068284216D02069A5
:10574000284213D1002231463846FEF789FA10B1BB
:105750000020BDE8F081E0683146A843E0603846AB
:10576000FEF76EFF31463846FFF7EEFA0120F0E70C
:10577000807B0008847B0008EC7C0008F07C00083B
:105780002DE9FC5F94498046097888427ED293498E
:1057900051F82870002F79D0FC68002CFBD0B4F8A9
:1057A000A400002872D1B4F8A6000028FAD1009015
:1057B00094F8A00010F01F0FF4D194F8A2004FF05D
:1057C000000A10F0FF0F4FF0010B4FF4803977D033
:1057D000797C8348002994F8951004D029B150F8B9
:1057E000280045699DE00029DCD150F828000569B2
:1057F00097E06878022804D0042868D0052863D18F
:1058000068E0697994F8A20081425ED129797A8AA8
:1058100091423BD82071287984F89400002003E05D
:105820007A6802F800A0401C798A8142F8D80126E3
:10583000A1680BFA06F0014213D004EB8600406920
:1058400028B131464046FEF7D7FA00281ED131462E
:105850004046FEF767FB002818D131464046FFF767
:10586000A5FAA16809FA06F0014218D004EB8600F7
:10587000406D30B146F080014046FEF7BDFA002889
:1058800004D146F080014046019100E075E0FEF74A
:1058900049FB002871D140460199FFF787FA761C31
:1058A000F6B2102EC4D34FF00110C4E9020AC4F8B6
:1058B00010A0E8794006608803D540F0010002E0BE
:1058C00034E020F00100608029E0688828E0E87872
:1058D000009024E0009810BBA878102200F08F01FF
:1058E00001F00F0002EAD10210440BFA00F604EBBB
:1058F0008000406918B14046FEF77EFAE8BBA06818
:105900003043A060E878AB8800F00302A9784046F5
:10591000FEF73EF988BBA9784046FFF715FA2878CC
:105920000544287800287FF464AF41E0564684F8A7
:1059300004A001254FEA0B07A16807FA05F0014210
:1059400011D004EB8500406920B129464046FEF79E
:1059500053FA90B929464046FEF7E4FA68B9294659
:105960004046FFF723FAA16809FA05F0014216D074
:1059700004EB8500406D38B100E02BE045F080017C
:105980004046FEF739FA28BB45F080018A4640467A
:10599000FEF7C8FAF0B951464046FFF707FA6D1C0A
:1059A000EDB2102DC8D34FF00110C4E902062661F4
:1059B000207994F8A21088420CD12179404600F059
:1059C00091F9084850F8281009B12079884701203A
:1059D000BDE8FC9F0020FBE7807B0008847B00087B
:1059E000D4000020E87C00082DE9FE4F07466148FE
:1059F000007887427ED2604850F82760002E79D028
:105A0000F468002C76D0B4F8A600002872D1834642
:105A1000CDF808B094F8A000D84600F01F00DA4690
:105A2000D946012866D12079002871D0717C53486D
:105A3000002994F8951004D029B150F82700456941
:105A40008CE0002956D150F82700056986E0687877
:105A5000022804D0042808D005287DD11FE06879E9
:105A60002179884278D0688877E0B4F8A400718AF8
:105A700088426AD295F8028095F803A04FF0000B97
:105A8000404569D1B4F8A210514565D170684FF016
:105A9000010910F80810029100F808A05CE0B4F8C1
:105AA000A410414558D1A878102200F08F0000F0D2
:105AB0000F01009002EAD0000844012181400191C9
:105AC000B4F8A220524524D1A168019A04EB8000C9
:105AD0001143A160E168019A9143E160406920B1FE
